:020000040800F2
:1000000000500020F1260008352700083527000899
:1000100035270008352700083527000800000000B4
:10002000000000000000000000000000352700086C
:10003000352700080000000035270008514C000853
:100040003527000835270008352700083527000820
:100050003527000835270008352700083527000810
:100060003527000835270008352700083527000800
:1000700035270008352700083527000835270008F0
:1000800035270008352700083527000835270008E0
:10009000614C00083527000835270008352700087F
:1000A000352700083527000835270008754C00085B
:1000B00035270008352700083527000835270008B0
:1000C00035270008352700083527000835270008A0
:1000D0003527000835270008352700083527000890
:1000E00035270008352700083527000800000000E4
:1000F0000000000000000000000000000000000000
:1001000000000000000000005FF808F110B5054C89
:10011000237833B9044B13B10448AFF300800123B3
:10012000237010BD2805002000000000ACCE0008A0
:10013000084B10B51BB108490848AFF300800848C8
:10014000036803B910BD074B002BFBD0BDE810407E
:10015000184700BF000000002C050020ACCE0008AE
:10016000240500200000000080B485B000AF786056
:100170007B6803F00703FB600C4BDB68BB60BA686D
:100180004FF6FF031340BB60FB681A02BB681343C2
:1001900043F0BF6343F40033BB60044ABB68D360E1
:1001A00000BF1437BD4680BC704700BF00ED00E0C3
:1001B00080B400AF044BDB6803F4E0631B0A18460D
:1001C000BD4680BC704700BF00ED00E080B483B046
:1001D00000AF0346FB71084997F907305B09FA79CC
:1001E00002F01F02012000FA02F241F8232000BFB2
:1001F0000C37BD4680BC704700E100E080B483B09E
:1002000000AF0346FB71094997F907305B09FA799A
:1002100002F01F02012000FA02F2203341F82320ED
:1002200000BF0C37BD4680BC704700BF00E100E056
:1002300080B483B000AF0346FB71094A97F90730D9
:100240005B09403352F82320FB7903F01F0322FAA5
:1002500003F303F0010318460C37BD4680BC70471A
:1002600000E100E080B483B000AF0346FB710949B0
:1002700097F907305B09FA7902F01F02012000FAB2
:1002800002F2403341F8232000BF0C37BD4680BC4A
:10029000704700BF00E100E080B483B000AF0346C8
:1002A000FB71094997F907305B09FA7902F01F02DF
:1002B000012000FA02F2603341F8232000BF0C371E
:1002C000BD4680BC704700BF00E100E080B483B051
:1002D00000AF0346FB71094A97F907305B09803389
:1002E00052F82320FB7903F01F0322FA03F303F0F3
:1002F000010318460C37BD4680BC704700E100E0A2
:1003000080B483B000AF03463960FB7197F90730C2
:10031000002B0BDA0D49FB7903F00F03043B3A681D
:10032000D2B21201D2B20B441A7609E0084997F909
:1003300007303A68D2B21201D2B20B4483F80023DC
:1003400000BF0C37BD4680BC704700BF00ED00E029
:1003500000E100E080B483B000AF0346FB7197F981
:100360000730002B0ADA0C4AFB7903F00F03043B39
:1003700013441B7EDBB21B09DBB208E0074A97F986
:100380000730134493F80033DBB21B09DBB2184685
:100390000C37BD4680BC704700ED00E000E100E096
:1003A00080B489B000AFF860B9607A60FB6803F090
:1003B0000703FB61FB69C3F10703042B28BF042378
:1003C000BB61FB690433062B02D9FB69033B00E0E8
:1003D00000237B610122BB6902FA03F35A1EBB684A
:1003E0001A407B699A4001217B6901FA03F3591E87
:1003F0007B680B40134318462437BD4680BC7047CA
:1004000080B489B000AFF860B9607A603B60BB68C7
:1004100003F00703FB61FB69C3F10703042B28BF4B
:100420000423BB61FB690433062B02D9FB69033B40
:1004300000E000237B61FA687B69DA400121BB6937
:1004400001FA03F3013B1A407B681A6001227B69C1
:1004500002FA03F35A1EFB681A403B681A6000BF99
:100460002437BD4680BC704780B400AFBFF34F8FC8
:100470000549054BDB6803F4E062044B1343CB6092
:10048000BFF34F8F00BFFDE700ED00E00400FA0569
:1004900080B582B000AF78607B68013BB3F1807FAC
:1004A00001D301230FE00A4A7B68013B53600F210F
:1004B0004FF0FF30FFF724FF054B00229A60044BFA
:1004C00007221A60002318460837BD4680BD00BFCA
:1004D00010E000E080B582B000AF78607868FFF788
:1004E00043FE00BF0837BD4680BD00BF80B586B063
:1004F00000AF0346B9607A60FB7300237B61FFF7AE
:1005000057FE78617A68B9687869FFF749FF024653
:1005100097F90F3011461846FFF7F2FE00BF183763
:10052000BD4680BD80B582B000AF0346FB7197F930
:1005300007301846FFF74AFE00BF0837BD4680BDAA
:1005400080B582B000AF0346FB7197F907301846BB
:10055000FFF754FE00BF0837BD4680BD80B500AF31
:10056000FFF782FF00BF80BD80B582B000AF78602A
:100570007868FFF78DFF034618460837BD4680BDF3
:1005800080B500AFFFF714FE0346184680BD00BFDC
:1005900080B584B000AFB9607A603B600346FB73FE
:1005A00097F90F301846FFF7D5FE3B687A68B968AF
:1005B000FFF726FF00BF1037BD4680BD80B582B073
:1005C00000AF0346FB7197F907301846FFF74AFE64
:1005D00000BF0837BD4680BD80B582B000AF03467E
:1005E000FB7197F907301846FFF722FE03461846BD
:1005F0000837BD4680BD00BF80B582B000AF03465E
:10060000FB7197F907301846FFF746FE00BF083721
:10061000BD4680BD80B582B000AF0346FB7197F93F
:1006200007301846FFF752FE034618460837BD4606
:1006300080BD00BF80B483B000AF78607B68042BBE
:1006400006D1094A084B1B6843F00403136005E018
:10065000054A054B1B6823F00403136000BF0C37E9
:10066000BD4680BC704700BF10E000E080B500AF21
:1006700000F002F800BF80BD80B400AF00BFBD46EF
:1006800080BC704780B58AB000AF786039607B6805
:10069000002B01D1012386E07B6893F83930DBB26F
:1006A000002B06D17B68002283F83820786800F0A0
:1006B000AFF87B68022283F839207B681A687B6870
:1006C0000433194610460AF047F97B6818683B68FE
:1006D00019683B689B6803220AF0C8FB7B681B68AB
:1006E0007A681268926922F00C029A617B681B6832
:1006F0007A68126891693A6852680A439A617B681D
:100700001B687A681268526842F080025A607B68FF
:100710001B687A681268926822F070029A607B689F
:100720001B687A681268926842F040029A607B689F
:100730001B687A681268926822F007029A607B68E8
:100740001B687A681268926842F004029A6000237B
:10075000FB6100233B627023FB6000237B6200236C
:10076000BB6100237B613B68DB683B617B681B6886
:1007700007F10C02114618460AF0B8F97B681B68AD
:100780007A681268526822F070025A607B681B68AF
:100790007A681268526842F050025A607B680122FF
:1007A00083F83920002318462837BD4680BD00BF96
:1007B00080B582B000AF78607B68022283F8392070
:1007C0007B681B681A6A41F211131340002B0FD18A
:1007D0007B681B681A6A40F244431340002B07D120
:1007E0007B681B687A681268126822F001021A603E
:1007F000786800F017F87B68002283F839207B685E
:10080000002283F83820002318460837BD4680BDF3
:1008100080B483B000AF786000BF0C37BD4680BCA9
:10082000704700BF80B483B000AF786000BF0C3762
:10083000BD4680BC704700BF80B582B000AF786015
:100840007B681B680122002118460AF0D5FC7B68F2
:100850001B687A681268126842F001021A6000236D
:1008600018460837BD4680BD80B582B000AF7860BD
:100870007B681B680022002118460AF0BDFC7B68DB
:100880001B681A6A41F211131340002B0FD17B68C9
:100890001B681A6A40F244431340002B07D17B685F
:1008A0001B687A681268126822F001021A6000233D
:1008B00018460837BD4680BD80B582B000AF78606D
:1008C0007B681B687A681268D26842F00202DA60BC
:1008D0007B681B680122002118460AF08DFC7B68AA
:1008E0001B687A681268126842F001021A600023DD
:1008F00018460837BD4680BD80B582B000AF78602D
:100900007B681B680022002118460AF075FC7B6892
:100910001B687A681268D26822F00202DA607B688B
:100920001B681A6A41F211131340002B0FD17B6828
:100930001B681A6A40F244431340002B07D17B68BE
:100940001B687A681268126822F001021A6000239C
:1009500018460837BD4680BD80B584B000AFF8604A
:10096000B9601346FB80FB6893F83930DBB2022B89
:1009700001D102233BE0FB6893F83930DBB2012B55
:100980000BD1BB68002B04D1FB88002B01D00123C5
:100990002DE0FB68022283F83920FB681B680122E6
:1009A000002118460AF028FCFB681B6A124A9A626A
:1009B000FB681B6A114A1A63FB68186AFB681B68AC
:1009C00034331946BA68FB8802F022F8FB681B68CA
:1009D000FA681268D26842F40072DA60FB681B6839
:1009E000FA681268126842F001021A600023184681
:1009F0001037BD4680BD00BFA1A800080DA80008A3
:100A000080B582B000AF78607B681B68002200214F
:100A100018460AF0F1FB7B681B687A681268D26896
:100A200022F40072DA607B681B681A6A41F21113C3
:100A30001340002B0FD17B681B681A6A40F24443B5
:100A40001340002B07D17B681B687A681268126814
:100A500022F001021A60002318460837BD4680BD07
:100A600080B582B000AF786039607B681B68042273
:100A70003968184601F022F87B681B687A681268AA
:100A8000526C42F400425A647B681B687A681268B0
:100A9000126842F001021A60002318460837BD466A
:100AA00080BD00BF80B582B000AF786039607B68E0
:100AB0001B6800223968184601F000F87B681B6843
:100AC0001A6A41F211131340002B0FD17B681B6887
:100AD0001A6A40F244431340002B07D17B681B681D
:100AE0007A681268526C22F400425A647B681B6870
:100AF0001A6A41F211131340002B0FD17B681B6857
:100B00001A6A40F244431340002B07D17B681B68EC
:100B10007A681268126822F001021A6000231846EF
:100B20000837BD4680BD00BF80B582B000AF786099
:100B300039603B680C2B41D801A252F823F000BF6A
:100B4000750B0008BD0B0008BD0B0008BD0B0008AD
:100B5000870B0008BD0B0008BD0B0008BD0B00088B
:100B6000990B0008BD0B0008BD0B0008BD0B000869
:100B7000AB0B00087B681B687A681268D26842F089
:100B80000202DA601BE07B681B687A681268D26830
:100B900042F00402DA6012E07B681B687A6812682F
:100BA000D26842F00802DA6009E07B681B687A6864
:100BB0001268D26842F01002DA6000E000BF7B6881
:100BC0001B687A681268D26842F08002DA607B683B
:100BD0001B6804223968184600F070FF7B681B68A8
:100BE0007A681268526C42F400425A647B681B684F
:100BF0007A681268126842F001021A6000231846EF
:100C00000837BD4680BD00BF80B584B000AF7860B6
:100C100039600023FB603B680C2B41D801A252F8DD
:100C200023F000BF590C0008A10C0008A10C00081B
:100C3000A10C00086B0C0008A10C0008A10C000816
:100C4000A10C00087D0C0008A10C0008A10C0008F4
:100C5000A10C00088F0C00087B681B687A6812687A
:100C6000D26822F00202DA601BE07B681B687A68B7
:100C70001268D26822F00402DA6012E07B681B6816
:100C80007A681268D26822F00802DA6009E07B68AC
:100C90001B687A681268D26822F01002DA6000E0FD
:100CA00000BF7B681B6800223968184600F006FF09
:100CB0007B681B681B6AFB60FA6840F24443134080
:100CC000002B07D17B681B687A681268D26822F013
:100CD0008002DA607B681B681A6A41F211131340C4
:100CE000002B0FD17B681B681A6A40F24443134003
:100CF000002B07D17B681B687A681268526C22F45B
:100D000000425A647B681B681A6A41F2111313404F
:100D1000002B0FD17B681B681A6A40F244431340D2
:100D2000002B07D17B681B687A681268126822F072
:100D300001021A60002318461037BD4680BD00BF6F
:100D400080B584B000AFF860B9607A607B80FB68E2
:100D500093F83930DBB2022B01D10223B7E0FB68F4
:100D600093F83930DBB2012B0BD17B68002B04D117
:100D70007B88002B01D00123A9E0FB68022283F8C5
:100D80003920BB680C2B00F2898001A252F823F0B5
:100D9000C50D00089D0E00089D0E00089D0E000860
:100DA000FB0D00089D0E00089D0E00089D0E00081A
:100DB000310E00089D0E00089D0E00089D0E0008D3
:100DC000670E0008FB681B6A434A9A62FB681B6A4D
:100DD000424A1A63FB68186A7968FB681B683433F7
:100DE0001A467B8801F014FEFB681B68FA681268DB
:100DF000D26842F40072DA6051E0FB685B6A364AFE
:100E00009A62FB685B6A354A1A63FB68586A7968BC
:100E1000FB681B6838331A467B8801F0F9FDFB68D4
:100E20001B68FA681268D26842F48062DA6036E0C1
:100E3000FB689B6A284A9A62FB689B6A274A1A6386
:100E4000FB68986A7968FB681B683C331A467B88A4
:100E500001F0DEFDFB681B68FA681268D26842F494
:100E60000062DA601BE0FB68DB6A1B4A9A62FB687F
:100E7000DB6A1A4A1A63FB68D86A7968FB681B68E0
:100E800040331A467B8801F0C3FDFB681B68FA6893
:100E90001268D26842F48052DA6000E000BFFB685A
:100EA0001B680422B968184600F008FEFB681B683E
:100EB000FA681268526C42F400425A64FB681B687C
:100EC000FA681268126842F001021A60002318469C
:100ED0001037BD4680BD00BF31A800080DA800082E
:100EE00080B582B000AF786039603B680C2B41D888
:100EF00001A252F823F000BF2D0F0008750F000863
:100F0000750F0008750F00083F0F0008750F0008E7
:100F1000750F0008750F0008510F0008750F0008C5
:100F2000750F0008750F0008630F00087B681B68C9
:100F30007A681268D26822F40072DA601BE07B687B
:100F40001B687A681268D26822F48062DA6012E064
:100F50007B681B687A681268D26822F40062DA60E3
:100F600009E07B681B687A681268D26822F48052B4
:100F7000DA6000E000BF7B681B6800223968184611
:100F800000F09CFD7B681B681A6A41F21113134044
:100F9000002B0FD17B681B681A6A40F24443134050
:100FA000002B07D17B681B687A681268526C22F4A8
:100FB00000425A647B681B681A6A41F2111313409D
:100FC000002B0FD17B681B681A6A40F24443134020
:100FD000002B07D17B681B687A681268126822F0C0
:100FE00001021A607B68012283F839200023184629
:100FF0000837BD4680BD00BF80B582B000AF7860C5
:1010000039607B681B6804223968184600F056FD79
:101010007B681B687A681268526C42F400425A641A
:101020007B681B687A681268126842F001021A60D5
:10103000002318460837BD4680BD00BF80B582B08A
:1010400000AF786039607B681B68002239681846F9
:1010500000F034FD7B681B681A6A41F211131340DB
:10106000002B0FD17B681B681A6A40F2444313407F
:10107000002B07D17B681B687A681268526C22F4D7
:1010800000425A647B681B681A6A41F211131340CC
:10109000002B0FD17B681B681A6A40F2444313404F
:1010A000002B07D17B681B687A681268126822F0EF
:1010B00001021A60002318460837BD4680BD00BFF4
:1010C00080B582B000AF786039603B680C2B41D8A6
:1010D00001A252F823F000BF0D11000855110008BD
:1010E00055110008551100081F110008551100087E
:1010F000551100085511000831110008551100085C
:101100005511000855110008431100087B681B6841
:101110007A681268D26842F00202DA601BE07B68EB
:101120001B687A681268D26842F00402DA6012E042
:101130007B681B687A681268D26842F00802DA603D
:1011400009E07B681B687A681268D26842F0100276
:10115000DA6000E000BF7B681B687A681268D268BA
:1011600042F08002DA607B681B6804223968184606
:1011700000F0A4FC7B681B687A681268526C42F429
:1011800000425A647B681B687A681268126842F0F1
:1011900001021A60002318460837BD4680BD00BF13
:1011A00080B584B000AF786039600023FB603B6895
:1011B0000C2B41D801A252F823F000BFF111000816
:1011C0003912000839120008391200080312000809
:1011D00039120008391200083912000815120008E7
:1011E00039120008391200083912000827120008C5
:1011F0007B681B687A681268D26822F00202DA60A3
:101200001BE07B681B687A681268D26822F00402CF
:10121000DA6012E07B681B687A681268D26822F094
:101220000802DA6009E07B681B687A681268D26895
:1012300022F01002DA6000E000BF7B681B68002229
:101240003968184600F03AFC7B681B681B6AFB6033
:10125000FA6840F244431340002B07D17B681B68B7
:101260007A681268D26822F08002DA607B681B68B4
:101270001A6A41F211131340002B0FD17B681B68CF
:101280001A6A40F244431340002B07D17B681B6865
:101290007A681268526C22F400425A647B681B68B8
:1012A0001A6A41F211131340002B0FD17B681B689F
:1012B0001A6A40F244431340002B07D17B681B6835
:1012C0007A681268126822F001021A600023184638
:1012D0001037BD4680BD00BF80B584B000AFF86058
:1012E000B9607A607B80FB6893F83930DBB2022BFF
:1012F00001D10223B7E0FB6893F83930DBB2012B50
:101300000BD17B68002B04D17B88002B01D00123FB
:10131000A9E0FB68022283F83920BB680C2B00F29D
:10132000898001A252F823F05D13000835140008EB
:10133000351400083514000893130008351400080C
:101340003514000835140008C913000835140008C6
:101350003514000835140008FF130008FB681B6AE9
:10136000434A9A62FB681B6A424A1A63FB68186A1E
:101370007968FB681B6834331A467B8801F048FBA8
:10138000FB681B68FA681268D26842F40072DA607F
:1013900051E0FB685B6A364A9A62FB685B6A354AD1
:1013A0001A63FB68586A7968FB681B6838331A4609
:1013B0007B8801F02DFBFB681B68FA681268D26815
:1013C00042F48062DA6036E0FB689B6A284A9A62DF
:1013D000FB689B6A274A1A63FB68986A7968FB680E
:1013E0001B683C331A467B8801F012FBFB681B68C4
:1013F000FA681268D26842F40062DA601BE0FB68A7
:10140000DB6A1B4A9A62FB68DB6A1A4A1A63FB684A
:10141000D86A7968FB681B6840331A467B8801F0FC
:10142000F7FAFB681B68FA681268D26842F48052C7
:10143000DA6000E000BFFB681B680422B968184648
:1014400000F03CFBFB681B68FA681268526C42F4BF
:1014500000425A64FB681B68FA681268126842F01E
:1014600001021A60002318461037BD4680BD00BF38
:1014700031A800080DA8000880B582B000AF7860E0
:1014800039603B680C2B41D801A252F823F000BF11
:10149000C51400080D1500080D1500080D150008ED
:1014A000D71400080D1500080D1500080D150008CB
:1014B000E91400080D1500080D1500080D150008A9
:1014C000FB1400087B681B687A681268D26822F4F3
:1014D0000072DA601BE07B681B687A681268D26869
:1014E00022F48062DA6012E07B681B687A68126816
:1014F000D26822F40062DA6009E07B681B687A68CF
:101500001268D26822F48052DA6000E000BF7B6883
:101510001B6800223968184600F0D0FA7B681B6807
:101520001A6A41F211131340002B0FD17B681B681C
:101530001A6A40F244431340002B07D17B681B68B2
:101540007A681268526C22F400425A647B681B6805
:101550001A6A41F211131340002B0FD17B681B68EC
:101560001A6A40F244431340002B07D17B681B6882
:101570007A681268126822F001021A607B68012200
:1015800083F83920002318460837BD4680BD00BFC8
:1015900080B582B000AF786039607B681B68042238
:1015A0003968184600F08AFA7B681B687A68126806
:1015B000526C42F400425A64002318460837BD4674
:1015C00080BD00BF80B582B000AF786039607B68B5
:1015D0001B6800223968184600F070FA7B681B68A7
:1015E0001A6A41F211131340002B0FD17B681B685C
:1015F0001A6A40F244431340002B07D17B681B68F2
:101600007A681268526C22F400425A647B681B6844
:101610001A6A41F211131340002B0FD17B681B682B
:101620001A6A40F244431340002B07D17B681B68C1
:101630007A681268126822F001021A6000231846C4
:101640000837BD4680BD00BF80B582B000AF78606E
:1016500039607B681B687A681268D26842F00202BF
:10166000DA607B681B687A681268D26842F004020C
:10167000DA607B681B6804223968184600F01EFA9D
:101680007B681B687A681268526C42F400425A64A4
:10169000002318460837BD4680BD00BF80B582B024
:1016A00000AF786039607B681B687A681268D2681E
:1016B00022F00202DA607B681B687A681268D268DE
:1016C00022F00402DA607B681B6800223968184641
:1016D00000F0F4F97B681B681A6A41F21113134099
:1016E000002B0FD17B681B681A6A40F244431340F9
:1016F000002B07D17B681B687A681268526C22F451
:1017000000425A647B681B681A6A41F21113134045
:10171000002B0FD17B681B681A6A40F244431340C8
:10172000002B07D17B681B687A681268126822F068
:1017300001021A60002318460837BD4680BD00BF6D
:1017400080B485B000AFF860B9607A60FB6893F848
:101750003830012B01D102233CE0FB68012283F8E1
:101760003820BB68002B08D0BB68102B05D0BB68A5
:10177000202B02D0BB68302B0FD1FB681B68FA68A6
:101780001268926822F070029A60FB681B68FA681F
:1017900012689168BA680A439A60FB681B68FA6825
:1017A0001268526842F001025A60FB681B68FA68CE
:1017B0001268526822F004025A60FB681B68FA68DB
:1017C000126851687A680A435A60FB68002283F8FD
:1017D0003820002318461437BD4680BC704700BF30
:1017E00080B485B000AFF860B9607A60FB6893F8A8
:1017F0003830012B01D1022344E0FB68012283F839
:101800003820BB68002B08D0BB68102B05D0BB6804
:10181000202B02D0BB68302B0FD1FB681B68FA6805
:101820001268926822F070029A60FB681B68FA687E
:1018300012689168BA680A439A60FB681B68FA6884
:101840001268526842F001025A60FB681B68FA682D
:101850001268526822F004025A60FB681B68FA683A
:10186000126851687A680A435A60FB681B68FA6814
:101870001268D26842F02002DA60FB68002283F826
:101880003820002318461437BD4680BC704700BF7F
:1018900080B485B000AFF860B9607A60FB6893F8F7
:1018A0003830012B01D102234CE0FB68012283F880
:1018B0003820BB68002B08D0BB68102B05D0BB6854
:1018C000202B02D0BB68302B0FD1FB681B68FA6855
:1018D0001268926822F070029A60FB681B68FA68CE
:1018E00012689168BA680A439A60FB681B68FA68D4
:1018F0001268526842F001025A60FB681B68FA687D
:101900001268526822F004025A60FB681B68FA6889
:10191000126851687A680A435A60FB681B6B0C4A6C
:101920009A62FB681B6B0B4A1A63FB681B68FA68B8
:101930001268D26842F40052DA60FB68002283F831
:101940003820002318461437BD4680BC704700BFBE
:101950007D1A00080DA8000880B483B000AF78603D
:1019600039607B6893F83830012B01D1022327E0DE
:101970007B68012283F838207B68022283F83920B3
:101980007B681B683A6811683A68526811433A6884
:10199000926811433A68D26811433A681269114358
:1019A0003A68526911433A6892690A435A647B68FB
:1019B000012283F839207B68002283F83820002335
:1019C00018460C37BD4680BC704700BF80B483B05A
:1019D00000AF786039607B6893F83830012B01D113
:1019E000022332E07B68012283F838207B680222E0
:1019F00083F839207B681B687A681268526822F085
:101A000070025A607B681B687A68126851683A688D
:101A100012680A435A607B681B687A681268926889
:101A200022F080029A607B681B687A68126891686D
:101A30003A6852680A439A607B68012283F8392029
:101A40007B68002283F83820002318460C37BD46F7
:101A500080BC704780B483B000AF786000BF0C37A3
:101A6000BD4680BC704700BF80B483B000AF7860D3
:101A700000BF0C37BD4680BC704700BF80B584B046
:101A800000AF78607B685B6AFB60FB68012283F8CB
:101A90003920F868FFF7DEFF00BF1037BD4680BD74
:101AA00080B483B000AF78607B6893F83930DBB2E4
:101AB00018460C37BD4680BC704700BF80B487B065
:101AC00000AFF860B9607A6000237B610422BB68D4
:101AD00002FA03F37B61FB681A6A7B69DB431A40F5
:101AE000FB681A62FB681A6A7968BB6801FA03F33B
:101AF0001A43FB681A6200BF1C37BD4680BC7047A2
:101B000080B590B000AF78600023FB630023BB6317
:101B10007B681B6803F00103002B00F0B7806D4A5F
:101B20006C4BDB6943F08053D3616A4BDB6903F094
:101B30008053FB60FB68684A674B1B6843F4807303
:101B4000136000F045FAF86308E000F041FA02463D
:101B5000FB6BD31A642B01D90323B6E05E4B1B68E1
:101B600003F48073002BF0D05A4B1A6A7B685B68D1
:101B7000534003F44073002B00F08880554B1B6AE0
:101B800023F44073BB634FF480333B633B6B93FAA6
:101B9000A3F3FB61FB69B3FA83F39B001A464F4B37
:101BA00013441A46012313604FF480337B627B6A2F
:101BB00093FAA3F33B623B6AB3FA83F39B001A46A2
:101BC000464B13441A4600231360424ABB6B136210
:101BD000BB6B03F00203002B4FD000F0F9F9F86360
:101BE0000AE000F0F5F90246FB6BD31A41F28832A5
:101BF000934201D9032368E002237B637B6B93FA52
:101C0000A3F3BB61BB69B3FA83F35BB243F0400358
:101C10005BB2DBB25B09DBB2012B02D12D4B1B683F
:101C200016E00223FB62FB6A93FAA3F37B617B69F4
:101C3000B3FA83F35BB243F040035BB2DBB25B0900
:101C4000DBB2022B02D1234B1B6A01E0214B5B6A02
:101C50000222BA62BA6A92FAA2F23A613A69B2FA16
:101C600082F252B242F0400252B2D2B202F01F02ED
:101C7000D34003F00103002BB3D01649154B1B6A68
:101C800023F440727B685B6813430B627B681B68BC
:101C900003F00203002B08D00E490E4B5B6823F4BF
:101CA00040427B689B6813434B607B681B6803F072
:101CB0001003002B08D00749064B5B6823F4800211
:101CC0007B68DB6813434B60002318464037BD46F2
:101CD00080BD00BF0010024000700040000442427E
:101CE00080B485B000AF78600023FB607B68012280
:101CF0001A60124B1B6A03F44073FB607B68FA683E
:101D00005A607B681B6843F002027B681A600B4BC9
:101D10005B6803F440427B689A607B681B6843F011
:101D200010027B681A60054B5B6803F480027B68D5
:101D3000DA6000BF1437BD4680BC70470010024017
:101D400090B593B000AF7860694B07F10C04186848
:101D500059689A68DB680FC4664A07F1080312885D
:101D60001A800023FB6300237B640023BB630023F2
:101D70003B6400237B637B68022B00F09980102B6F
:101D800002D0012B5ED0ADE05B4B5B68FB635A4B2E
:101D90001B6803F08073002B00F0A380FB6B03F43F
:101DA00070124FF47013BB62BB6A93FAA3F37B62A9
:101DB0007B6AB3FA83F322FA03F307F14802134470
:101DC00013F83C3C7B63FB6B03F48033002B23D084
:101DD000494B5B6803F400324FF400333B633B6BC9
:101DE00093FAA3F33B623B6AB3FA83F322FA03F359
:101DF00007F14802134413F8403CBB63FB6B03F448
:101E00008033002B0DD03D4ABB6BB2FBF3F37A6BF2
:101E100002FB03F33B6404E07B6B394A02FB03F3F0
:101E20003B64354B5B6803F48003002B02D03B6CB2
:101E30007B6456E03B6C5B00324AA2FB03235B08E9
:101E40007B644EE02C4B1B6AFB63FB6B03F440731B
:101E5000B3F5807F08D1FB6B03F00203002B03D0A6
:101E60004FF400437B6422E0FB6B03F44073B3F553
:101E7000007F09D1204B5B6A03F00203002B03D0E3
:101E800049F640437B6412E0FB6B03F44073B3F507
:101E9000407F09D1184B1B6803F40033002B03D09B
:101EA0004FF224437B6402E000237B641AE019E0D4
:101EB0000AF034FE0146104B5B6803F440424FF4D5
:101EC0008043FB62FB6A93FAA3F3FB61FB69B3FAFD
:101ED00083F322FA03F301335B00B1FBF3F37B647A
:101EE00000E000BF7B6C18464C37BD4690BD00BF7C
:101EF00008CE000818CE00080010024000127A0038
:101F000000093D00ABAAAAAA80B500AF084A084B59
:101F10001B6843F0100313600320FEF7DBFA002078
:101F200000F02CF805F006FB0023184680BD00BF2A
:101F30000020024080B500AF094B4FF0FF32DA605D
:101F4000074B00221A61064B4FF0FF32DA60044B58
:101F50000022DA6000F00CF80023184680BD00BFB4
:101F60000010024080B400AF00BFBD4680BC704787
:101F700080B400AF00BFBD4680BC704780B582B062
:101F800000AF78600AF080FD0246094BA3FB0223F4
:101F90009B091846FEF7E8FA002279684FF0FF30F7
:101FA000FEF7A4FA002318460837BD4680BD00BFDF
:101FB000D34D621080B400AF044B1B680133034A59
:101FC000136000BFBD4680BC704700BF44050020C1
:101FD00080B400AF024B1B681846BD4680BC7047FA
:101FE0004405002080B584B000AF78600023FB601A
:101FF000FFF7EEFFF86000BFFFF7EAFF0246FB685D
:10200000D21A7B689A42F7D300BF1037BD4680BD15
:1020100080B400AF044A044B1B6823F00203136032
:1020200000BFBD4680BC704710E000E080B400AF48
:10203000044A044B1B6843F00203136000BFBD4613
:1020400080BC704710E000E080B400AF4FF0012387
:102050001846BD4680BC704780B483B000AF094BC2
:102060001A68094B7B607B6893FAA3F33B603B687B
:10207000B3FA83F322FA03F318460C37BD4680BC4B
:10208000704700BF002004E00000FFFF80B400AFF5
:10209000034B1B68C3F30B031846BD4680BC704757
:1020A000002004E080B400AF044A044B5B6843F0B6
:1020B0000103536000BFBD4680BC7047002004E0B0
:1020C00080B400AF044A044B5B6823F00103536003
:1020D00000BFBD4680BC7047002004E080B400AF64
:1020E000044A044B5B6843F00203536000BFBD46E3
:1020F00080BC7047002004E080B400AF044A044B69
:102100005B6823F00203536000BFBD4680BC70478C
:10211000002004E080B400AF044A044B5B6843F045
:102120000403536000BFBD4680BC7047002004E03C
:1021300080B400AF044A044B5B6823F0040353608F
:1021400000BFBD4680BC7047002004E080B584B06D
:1021500000AF78600B46FB700023FB73042303225F
:102160008121786802F020FF102003F011F8024668
:102170007B68C3F818227B68D3F81832002B02D191
:102180000123FB7304E07B68D3F8183200221A7332
:10219000FB7B18461037BD4680BD00BF80B582B0BE
:1021A00000AF78600B46FB708121786802F016FF63
:1021B0007B68D3F81832002B09D07B68D3F818322B
:1021C000184602F0F1FF7B680022C3F818220023B2
:1021D00018460837BD4680BD80B586B000AF786030
:1021E00039600023FB8200233B617B68D3F81832FF
:1021F000FB603B681B7803F06003002B44D0202B6E
:102200007DD13B685B78023B092B36D801A252F89E
:1022100023F000BF6B2200084B2200087B2200083D
:102220007B2200087B2200087B2200087B2200081A
:102230007B220008592200083D2200083B685B8889
:10224000DBB21A46FB681A601DE0FB6801221946E2
:10225000786802F0BFFF16E03B685B881B0A9BB200
:10226000DBB21A46FB685A600DE0FB6804330122BA
:102270001946786802F0AEFF05E03968786803F027
:1022800049FC02233CE03AE03B685B780A2B27D00C
:102290000B2B2DD0062B32D13B685B881B0A9BB2DF
:1022A000222B08D13B68DB883D2B28BF3D23FB82D6
:1022B000154B3B610DE03B685B881B0A9BB2212BF1
:1022C00007D1124B3B613B68DB88092B28BF0923F0
:1022D000FB82FB8A1A463969786802F07BFF0EE0C0
:1022E000FB68083301221946786802F073FF06E0A4
:1022F0003B685B88DBB21A46FB689A6000BF00232C
:1023000018461837BD4680BD740000205C000020D0
:1023100080B586B000AFF860B9601346FB80FB68FB
:10232000D3F818327B61FB6893F8FC31032B0CD196
:102330007B691B7B002B08D17B6901221A73FB8808
:10234000BA688121F86802F0D3FE002318461837D6
:10235000BD4680BD80B485B000AF78600023FB60CF
:102360007B681B7C002B02D10823FB6001E00A2361
:10237000FB60FB6818461437BD4680BC704700BF41
:1023800080B483B000AF78607B6822221A80034B50
:1023900018460C37BD4680BC704700BF380000208F
:1023A00080B483B000AF78600B46FB707B68D3F8D5
:1023B000183200221A73002318460C37BD4680BC21
:1023C000704700BF80B483B000AF78607B680A229A
:1023D0001A80034B18460C37BD4680BC704700BFBF
:1023E0006800002080B584B000AF78600021786874
:1023F00008F02AF90346BB81BB8940F6E3329342D9
:1024000040F28C80514B1B78002B40F08780504B62
:1024100000221A700023FB7328E0FB7B4D4A32F840
:102420001330B3F57A7F06D2FB7B4A4A4FF47A71B8
:1024300022F813100CE0FB7B464A32F81330B3F558
:10244000FA6F05D9FB7B434A4FF4FA6122F8131067
:10245000FB7BFA7B3F4931F81220A2F57A7291B2E8
:102460003D4A22F81310FB7B0133FB73FB7B072BE8
:10247000D3D9394B00221A82364B1B8A40F2DC52E8
:10248000934206D9344B1B8A43F001039AB2324B74
:102490001A82304B5B8A40F2DC52934206D92E4BB3
:1024A0001B8A43F002039AB22B4B1A82294B9B8A58
:1024B00040F2DC52934206D9274B1B8A43F00403B7
:1024C0009AB2254B1A82234BDB8A40F2DC529342AC
:1024D00006D9214B1B8A43F008039AB21E4B1A827D
:1024E0001C4B1B8B40F2DC52934206D91A4B1B8AC1
:1024F00043F010039AB2184B1A82164B5B8B40F2D2
:10250000DC52934206D9144B1B8A43F020039AB243
:10251000114B1A820D4B01221A700CE00C4B1B78E8
:1025200019460C4ABB8922F81130094B1B7801333C
:10253000DAB2074B1A70064B1B780E2B02D1044BF4
:1025400000221A7000BF1037BD4680BD77050020FD
:1025500076050020480500206405002080B500AF06
:10256000FFF7D2FC00F020F800F0BCF800F066F8AD
:1025700002F0C8FE0021084806F002F9074B1B785C
:10258000002BFBD0122206490648FFF7C1FE034B81
:1025900000221A70F2E700BF9005002077050020A6
:1025A00064050020EC0B002080B594B000AF01233F
:1025B000BB624FF48033FB6200233B6302237B64E6
:1025C0004FF48033BB644FF4E013FB6407F128033E
:1025D000184608F06BFE05237B610223BB610023D4
:1025E000FB614FF480633B6200237B6207F11403BD
:1025F0000221184609F074FE10237B6000233B6122
:102600003B1D1846FFF77CFA0AF03EFA02460A4BD9
:10261000A3FB02239B091846FDF7A6FF0420FEF743
:1026200009F8002200214FF0FF30FDF75FFF00BFE7
:102630005037BD4680BD00BFD34D621080B590B00D
:1026400000AF264B264A1A60244B47225A60234B80
:1026500000229A60214B4FF6FF72DA601F4B002276
:102660001A611E4B00225A611C4804F0D7FF4FF438
:1026700080533B6307F130031946184807F07EFE8C
:10268000164805F0C9FF0423FB6150233B62022377
:102690007B620023FB6207F11C0319460F4807F019
:1026A00067FF00237B610023BB6107F11403194618
:1026B0000A48FFF78BF902237B600123BB600023EC
:1026C000FB6000233B613B1D00221946034807F0D5
:1026D000B5F800BF4037BD4680BD00BF9005002063
:1026E000002C014080B400AF00BFBD4680BC7047E5
:1026F000002103E00A4B5B584350043109480A4B60
:1027000042189A42F6D3094A02E0002342F8043BF9
:10271000074B9A42F9D300F0FBFDFFF71FFF70470C
:10272000ACCE00080000002028050020280500206D
:10273000100E0020FEE7000080B485B000AF786086
:102740000023FB607B68002B01D1012339E07B680B
:1027500093F82130002B03D17B68002283F82020DE
:102760007B68022283F821207B681B681B68FB6062
:10277000FB6823F47F5323F03003FB607B685A68C7
:102780007B689B681A437B68DB681A437B681B691C
:102790001A437B685B691A437B689B691A437B68B1
:1027A000DB691343FA681343FB607B681B68FA68B4
:1027B0001A607B6800225A637B68012283F821201B
:1027C000002318461437BD4680BC704780B483B0E0
:1027D00000AF78607B68002B01D10123D2E07B68D9
:1027E00093F82130022B01D10123CBE07B681B68D9
:1027F0007A681268126822F001021A607B681B680E
:1028000000221A607B681B6800225A607B681B6884
:1028100000229A607B681B680022DA605C4A7B6851
:102820001B6819465B4B99422ED07B681B68194682
:10283000594B994226D07B681B681946574B9942E1
:102840001DD07B681B681946554B994214D07B6894
:102850001B681946534B99420BD07B681B6819467D
:10286000514B994202D14FF400130EE04FF0007328
:102870000BE04FF4003308E04FF4005305E04FF451
:10288000007302E0202300E002235360404A7B688B
:102890001B6819463F4B99422ED07B681B6819462E
:1028A0003D4B994226D07B681B6819463B4B9942A9
:1028B0001DD07B681B681946394B994214D07B6840
:1028C0001B681946374B99420BD07B681B68194629
:1028D000354B994202D14FF400030EE04FF00063F4
:1028E0000BE04FF4002308E04FF4004305E04FF401
:1028F000006302E0802300E008235360244A7B68E1
:102900001B681946234B99422ED07B681B681946D9
:10291000214B994226D07B681B6819461F4B994270
:102920001DD07B681B6819461D4B994214D07B68EB
:102930001B6819461B4B99420BD07B681B681946D4
:10294000194B994202D14FF480030EE04FF080639F
:102950000BE04FF4802308E04FF4804305E04FF490
:10296000806302E0402300E0042353607B68002280
:102970005A637B68002283F821207B68002283F859
:102980002020002318460C37BD4680BC704700BF8E
:1029900000000240080002401C00024030000240DB
:1029A00044000240580002406C00024080B584B0F0
:1029B00000AFF860B9607A603B60FB6893F8203044
:1029C000012B01D102231EE0FB68012283F82020A5
:1029D000FB68022283F82120FB681B68FA681268F2
:1029E000126822F001021A603B687A68B968F868D8
:1029F00000F068FCFB681B68FA681268126842F015
:102A000001021A60002318461037BD4680BD00BF82
:102A100080B584B000AFF860B9607A603B60FB6855
:102A200093F82030012B01D1022336E0FB6801220C
:102A300083F82020FB68022283F82120FB681B68B2
:102A4000FA681268126822F001021A603B687A681C
:102A5000B968F86800F036FCFB681B68FA68126811
:102A6000126842F002021A60FB681B68FA6812687A
:102A7000126842F004021A60FB681B68FA68126868
:102A8000126842F008021A60FB681B68FA68126854
:102A9000126842F001021A60002318461037BD4642
:102AA00080BD00BF80B584B000AF78600023FB60BC
:102AB0007B681B687A681268126822F001021A604B
:102AC000FFF786FAF86017E0FFF782FA0246FB6824
:102AD000D31AB3F57A7F0FD97B685B6B43F0200282
:102AE0007B685A637B68032283F821207B6800227D
:102AF00083F8202003230FE07B681B681B6803F02A
:102B00000103002BE0D17B68012283F821207B6840
:102B1000002283F82020002318461037BD4680BDD0
:102B200080B586B000AFF860B9607A6000233B6181
:102B3000BB68002B37D1FB681B681A46A34B9A422F
:102B40002ED0FB681B681A46A14B9A4226D0FB6820
:102B50001B681A469F4B9A421DD0FB681B681A4699
:102B60009D4B9A4214D0FB681B681A469B4B9A42B5
:102B70000BD0FB681B681A46994B9A4202D14FF45E
:102B800000130EE04FF000730BE04FF4003308E049
:102B90004FF4005305E04FF4007302E0202300E0FF
:102BA00002237B6136E0FB681B681A46874B9A421A
:102BB0002ED0FB681B681A46854B9A4226D0FB68CC
:102BC0001B681A46834B9A421DD0FB681B681A4645
:102BD000814B9A4214D0FB681B681A467F4B9A427D
:102BE0000BD0FB681B681A467D4B9A4202D14FF40A
:102BF00080030EE04FF080630BE04FF4802308E089
:102C00004FF4804305E04FF4806302E0402300E08E
:102C100004237B61FFF7DCF93861A1E0714B1A688E
:102C2000FB681B681946694B99422ED0FB681B68EC
:102C30001946674B994226D0FB681B681946654BBD
:102C400099421DD0FB681B681946634B994214D00A
:102C5000FB681B681946614B99420BD0FB681B68E7
:102C600019465F4B994202D14FF400030EE04FF03A
:102C700000630BE04FF4002308E04FF4004305E04D
:102C80004FF4006302E0802300E008231340002B90
:102C900047D0544AFB681B6819464C4B99422ED0CA
:102CA000FB681B6819464A4B994226D0FB681B6893
:102CB0001946484B99421DD0FB681B681946464B84
:102CC000994214D0FB681B681946444B99420BD0BB
:102CD000FB681B681946424B994202D14FF400032E
:102CE0000EE04FF000630BE04FF4002308E04FF4D8
:102CF000004305E04FF4006302E0802300E0082376
:102D00005360FB685B6B43F00102FB685A63FB682E
:102D1000042283F82120FB68002283F8202001236D
:102D2000B5E07B68B3F1FF3F1AD07B68002B07D07A
:102D3000FFF74EF902463B69D21A7B689A420FD9D7
:102D4000FB685B6B43F02002FB685A63FB6803225D
:102D500083F82120FB68002283F82020032396E0DB
:102D6000204B1A687B691340002B3FF457AFBB68B8
:102D7000002B4BD11B4AFB681B681946134B994229
:102D80003DD0FB681B681946114B994235D0FB6852
:102D90001B6819460F4B99422CD0FB681B681946DB
:102DA0000D4B994223D0FB681B6819460B4B994287
:102DB0001AD0FB681B681946094B994202D14FF49F
:102DC00000131DE04FF000731AE000BF080002403E
:102DD0001C00024030000240440002405800024003
:102DE0006C000240000002404FF4003308E04FF452
:102DF000005305E04FF4007302E0202300E00223BB
:102E00005360FB68012283F821203BE0224AFB68E3
:102E10001B681946214B99422ED0FB681B68194646
:102E20001F4B994226D0FB681B6819461D4B9942DF
:102E30001DD0FB681B6819461B4B994214D0FB68D8
:102E40001B681946194B99420BD0FB681B68194641
:102E5000174B994202D14FF480030EE04FF080638C
:102E60000BE04FF4802308E04FF4804305E04FF47B
:102E7000806302E0402300E004235360FB681122DA
:102E800083F82120FB68002283F8202000231846C5
:102E90001837BD4680BD00BF000002400800024058
:102EA0001C00024030000240440002405800024032
:102EB0006C00024080B582B000AF78608F4B1A681A
:102EC0007B681B6819468E4B99422ED07B681B6825
:102ED00019468C4B994226D07B681B6819468A4B51
:102EE00099421DD07B681B681946884B994214D0C3
:102EF0007B681B681946864B99420BD07B681B6820
:102F00001946844B994202D14FF400030EE04FF072
:102F100000630BE04FF4002308E04FF4004305E0AA
:102F20004FF4006302E0802300E008231340002BED
:102F30005CD07B681B681B6803F00803002B55D02E
:102F40007B681B687A681268126822F008021A60AF
:102F50006A4A7B681B681946694B99422ED07B6888
:102F60001B681946674B994226D07B681B68194637
:102F7000654B99421DD07B681B681946634B99428B
:102F800014D07B681B681946614B99420BD07B6853
:102F90001B6819465F4B994202D14FF400030EE0C3
:102FA0004FF000630BE04FF4002308E04FF40043C0
:102FB00005E04FF4006302E0802300E00823536043
:102FC0007B685B6B43F001027B685A637B68042279
:102FD00083F821207B68002283F820207B681B6B0C
:102FE000002B03D07B681B6B78689847434B1A68AB
:102FF0007B681B681946424B99422ED07B681B6840
:103000001946404B994226D07B681B6819463E4BB7
:1030100099421DD07B681B6819463C4B994214D0DD
:103020007B681B6819463A4B99420BD07B681B683A
:103030001946384B994202D14FF480030EE04FF00D
:1030400080630BE04FF4802308E04FF4804305E0F9
:103050004FF4806302E0402300E004231340002B80
:1030600068D07B681B681B6803F00403002B61D0E9
:103070007B681B681B6803F02003002B07D17B686B
:103080001B687A681268126822F004021A601B4AF0
:103090007B681B6819461A4B99423DD07B681B68B8
:1030A0001946184B994226D07B681B681946164B67
:1030B00099421DD07B681B681946144B994214D065
:1030C0007B681B681946124B99420BD07B681B68C2
:1030D0001946104B994202D14FF480031DE04FF086
:1030E00080631AE04FF4802317E04FF4804314E02C
:1030F0004FF4806311E040230FE000BF0000024066
:10310000080002401C00024030000240440002401F
:10311000580002406C000240042353607B68112277
:1031200083F821207B68DB6A002B03D07B68DB6A95
:1031300078689847504B1A687B681B6819464F4B54
:1031400099422ED07B681B6819464D4B994226D078
:103150007B681B6819464B4B99421DD07B681B68E6
:103160001946494B994214D07B681B681946474B56
:1031700099420BD07B681B681946454B994202D196
:103180004FF400130EE04FF000730BE04FF40033E8
:1031900008E04FF4005305E04FF4007302E02023F1
:1031A00000E002231340002B61D07B681B681B6882
:1031B00003F00203002B5AD07B681B681B6803F0E6
:1031C0002003002B07D17B681B687A68126812689D
:1031D00022F002021A60284A7B681B681946274BB6
:1031E00099422ED07B681B681946254B994226D000
:1031F0007B681B681946234B99421DD07B681B686E
:103200001946214B994214D07B681B6819461F4B05
:1032100099420BD07B681B6819461D4B994202D11D
:103220004FF400130EE04FF000730BE04FF4003347
:1032300008E04FF4005305E04FF4007302E0202350
:1032400000E0022353607B685A6B7B685A637B689B
:10325000012283F821207B68002283F820207B68EC
:103260009B6A002B03D07B689B6A7868984700BFF5
:103270000837BD4680BD00BF000002400800024084
:103280001C0002403000024044000240580002404E
:103290006C00024080B483B000AF78607B6893F824
:1032A000213018460C37BD4680BC704780B483B0CF
:1032B00000AF78607B685B6B18460C37BD4680BCFE
:1032C000704700BF80B485B000AFF860B9607A6025
:1032D0003B60FB681B683A685A60FB685B68102BB0
:1032E00008D1FB681B687A689A60FB681B68BA683B
:1032F000DA6007E0FB681B68BA689A60FB681B68C5
:103300007A68DA6000BF1437BD4680BC704700BFE2
:1033100080B400AF154A154B1B6843F001031360DE
:103320001249124B5A68124B13404B600F4A0F4B15
:103330001B6823F0847323F4803313600B4A0B4B18
:103340001B6823F480231360084A084B5B6823F44E
:10335000FE035360054B4FF41F029A60054B4FF07C
:1033600000629A6000BFBD4680BC704700100240FA
:103370000000FFF800ED00E080B485B000AF00234E
:10338000FB600023BB6000237B602C4B5B6803F079
:103390000C03FB60FB68042B07D0082B09D0002B23
:1033A00033D1274B274A1A6033E0254B254A1A6050
:1033B0002FE0224B5B6803F47013BB601F4B5B680C
:1033C00003F480337B60BB689B0C0233BB607B687B
:1033D000002B06D1BB681C4A02FB03F3184A13609A
:1033E00017E0164B5B6803F40033002B06D0BB6874
:1033F000154A02FB03F3124A13600AE0BB68114A44
:1034000002FB03F30E4A136003E00D4B0D4A1A60F2
:1034100000BF0A4B5B6803F0F0031B090B4AD35C47
:10342000FB60074B1A68FB6822FA03F3044A136037
:1034300000BF1437BD4680BC704700BF001002407B
:10344000B400002000127A0000093D001CCE0008E4
:1034500080B48BB000AF786039600023FB6100233B
:10346000BB6100237B6100233B6200233B6100239F
:103470007B6227E101227B6A02FA03F3FB613B686E
:103480001A68FB691340BB61BA69FB699A4240F054
:1034900016813B685B68122B34D0122B0DD8022B9F
:1034A0002BD0022B04D8002B31D0012B1CD048E0AC
:1034B000032B43D0112B1BD043E0874A934226D0E5
:1034C000854A934206D8854A934220D0844A934243
:1034D0001DD036E0834A934219D0834A934216D0D6
:1034E000824A934213D02CE03B68DB683B6228E0C1
:1034F0003B68DB6804333B6223E03B68DB680833EE
:103500003B621EE03B68DB680C333B6219E03B68C2
:103510009B68002B02D104233B6212E03B689B684E
:10352000012B05D108233B627B68FA691A6108E028
:1035300008233B627B68FA695A6102E000233B6220
:1035400000BFBB69FF2B01D87B6801E07B680433B7
:10355000FB60BB69FF2B02D87B6A9B0002E07B6AA1
:10356000083B9B003B61FB681A680F213B6901FA2D
:1035700003F3DB431A40396A3B6901FA03F31A4348
:10358000FB681A603B685B6803F08053002B00F017
:103590009680574A564B9B6943F001039361544B05
:1035A0009B6903F00103BB60BB68524A7B6A9B08BE
:1035B000023352F823307B617B6A03F003039B00E4
:1035C0000F2202FA03F3DB437A6913407B617B68C5
:1035D000494A934213D07B68484A93420DD07B6896
:1035E000474A934207D07B68464A934201D103235E
:1035F00006E0042304E0022302E0012300E00023AC
:103600007A6A02F00302920093407A6913437B6165
:1036100038497B6A9B0802337A6941F823203B686A
:103620005B6803F48033002B06D03749364B1A68A9
:10363000BB6913430B6006E03349334B1A68BB691F
:10364000DB4313400B603B685B6803F40033002BE3
:1036500006D02D492C4B5A68BB6913434B6006E0DA
:103660002949294B5A68BB69DB4313404B603B68CF
:103670005B6803F48013002B06D02349224B9A6821
:10368000BB6913438B6006E01F491F4B9A68BB69F7
:10369000DB4313408B603B685B6803F40013002B33
:1036A00006D01949184BDA68BB691343CB6006E0B2
:1036B0001549154BDA68BB69DB431340CB607B6A65
:1036C00001337B627B6A0F2B7FF6D4AE00BF2C37B1
:1036D000BD4680BC704700BF0000211000001110E3
:1036E0000000121000003110000032100000221003
:1036F000001002400000014000080140000C0140A1
:1037000000100140001401400004014080B489B061
:1037100000AF786039600023FB610023BB610023A8
:103720007B6100233B619AE00122FB699A403B6880
:103730001340BB61BB69002B00F08E80BB69FF2B7F
:1037400001D87B6801E07B680433FB60BB69FF2B19
:1037500002D8FB699B0002E0FB69083B9B003B61D0
:10376000FB681A680F213B6901FA03F3DB431A4037
:1037700004213B6901FA03F31A43FB681A607B6872
:10378000DA68BB69DB431A407B68DA603A4AFB6956
:103790009B08023352F823307B61FB6903F003037B
:1037A0009B000F2202FA03F37A6913407B617B6866
:1037B000324A934213D07B68314A93420DD07B68E2
:1037C000304A934207D07B682F4A934201D10323AA
:1037D00006E0042304E0022302E0012300E00023CA
:1037E000FA6902F00302920003FA02F27B699A423C
:1037F00032D1FB6903F003039B000F2202FA03F3AB
:103800007B611D48FB699B081B49FA6992080232DB
:1038100051F822107A69D2430A40023340F823203B
:103820001A491A4B1A68BB69DB4313400B601749EE
:10383000164B5A68BB69DB4313404B601349134B6B
:103840009A68BB69DB4313408B6010490F4BDA6801
:10385000BB69DB431340CB60FB690133FB613A6812
:10386000FB6922FA03F3002B7FF45EAF00BF24371D
:10387000BD4680BC704700BF000001400008014009
:10388000000C014000100140001401400004014000
:1038900080B485B000AF78600B467B807B689A6807
:1038A0007B881340002B02D00123FB7301E000232F
:1038B000FB73FB7B18461437BD4680BC704700BFC6
:1038C00080B483B000AF78600B467B8013467B707A
:1038D0007B78002B03D07A887B681A6103E07B88B1
:1038E0001A047B681A6100BF0C37BD4680BC704764
:1038F00080B483B000AF78600B467B807B68DA6869
:103900007B885A407B68DA6000BF0C37BD4680BCBC
:10391000704700BF80B485B000AF78600B467B80F5
:103920004FF48033FB607A88FB681343FB60FA68CE
:103930007B689A617A887B689A61FA687B689A6189
:103940007B689B69FB607B689B6903F48033002B79
:1039500001D0002300E0012318461437BD4680BC87
:10396000704700BF80B582B000AF0346FB80084BB4
:103970005A69FB881340002B06D0054AFB88536127
:10398000FB88184600F006F800BF0837BD4680BD2A
:103990000004014080B483B000AF0346FB8000BF49
:1039A0000C37BD4680BC704780B483B000AF03467F
:1039B0003960FB713B6812221A80034B18460C37A2
:1039C000BD4680BC704700BFD400002080B483B0E7
:1039D00000AF03463960FB713B6804221A80034B39
:1039E00018460C37BD4680BC704700BFE800002079
:1039F00080B582B000AF03463960FB71FB79002BC4
:103A000005D13A680749084802F096F804E03A6898
:103A10000449054802F090F8024B18460837BD46A5
:103A200080BD00BFCC0500202CCE000880B582B040
:103A300000AF03463960FB713A680449044802F05C
:103A40007BF8024B18460837BD4680BDCC050020E8
:103A500044CE000880B582B000AF03463960FB71E8
:103A6000FB79002B05D13A680749084802F064F851
:103A700004E03A680449054802F05EF8024B184633
:103A80000837BD4680BD00BFCC05002058CE0008D9
:103A900080B582B000AF03463960FB71FB79002B23
:103AA00005D13A680749084802F046F804E03A6848
:103AB0000449054802F040F8024B18460837BD4655
:103AC00080BD00BFCC05002068CE000880B582B064
:103AD00000AF03463960FB71FB79002B05D13A68D2
:103AE0000749084802F028F804E03A680449054804
:103AF00002F022F8024B18460837BD4680BD00BFD1
:103B0000CC05002074CE0008F0B58BB006AF78600D
:103B10000023FB607B68002B01D10123CAE07B6896
:103B200093F8E933DBB2002B06D17B68002283F8DF
:103B3000E823786801F0A8F87B68032283F8E9237A
:103B40007B681B68184602F079FB7B681B683B604A
:103B50007E686D4606F110040FCC0FC523682B60FC
:103B6000331D0ECB386802F03FFB7B681B680021D9
:103B7000184602F07FFB0023FB6037E07A68FB68A1
:103B80005B011344293301221A70FB68D9B27A68A9
:103B9000FB685B01134428330A461A70FB6899B22C
:103BA0007A68FB685B01134434330A461A807A68EA
:103BB000FB685B0113442B3300221A707A68FB68A0
:103BC0005B011344383300221A607A68FB685B019A
:103BD00013443C3300221A607A68FB6802335B01AD
:103BE000134400221A60FB680133FB60FB680E2B54
:103BF000C4D90023FB603CE07A68FB685B01134496
:103C000003F2092300221A70FB68D9B27A68FB68B4
:103C10005B01134403F502730A461A70FB6899B2FC
:103C20007A68FB685B01134434330A461A807A6869
:103C3000FB685B01134403F20B2300221A707A68BD
:103C4000FB685B01134403F5067300221A607A686F
:103C5000FB685B01134403F5077300221A607A685E
:103C6000FB6811335B01134400221A60FB680133C7
:103C7000FB60FB680E2BBFD97B681B683B607E68CE
:103C80006D4606F110040FCC0FC523682B60331D61
:103C90000ECB386802F0FAFA7B68002283F8242001
:103CA0007B68012283F8E9237B681B68184603F0D0
:103CB0003FFB002318461437BD46F0BD80B582B0E7
:103CC00000AF78607B68002B01D101230EE07B6898
:103CD000032283F8E923786800F046F8786800F05A
:103CE000F9FF7B68002283F8E92300231846083790
:103CF000BD4680BD80B483B000AF786000BF0C3794
:103D0000BD4680BC704700BF80B483B000AF786010
:103D100000BF0C37BD4680BC704700BF80B582B085
:103D200000AF78607B6893F8E833012B01D1022360
:103D300016E07B68012283F8E8230121786801F00E
:103D40003DFA7B681B68184603F0E8FA7B681B683D
:103D5000184602F059FA7B68002283F8E823002312
:103D600018460837BD4680BD80B582B000AF786088
:103D70007B6893F8E833012B01D1022317E07B68BD
:103D8000012283F8E8237B681B68184602F056FA84
:103D90007B681B68184603F097FA7B681B68184617
:103DA00003F0C6FA7B68002283F8E8230023184654
:103DB0000837BD4680BD00BF80B584B000AF7860D5
:103DC0000023FB607B681B68184603F0BBFA0346C0
:103DD00003F40043002B02D0786800F003FC7B68FA
:103DE0001B68184603F0AEFA034603F48063002B09
:103DF00012D07B681B687A681268B2F8442092B2CD
:103E000022F4806292B2A3F84420786800F0CCFFDC
:103E10000021786800F082F97B681B68184603F07F
:103E200091FA034603F48043002B0BD07B681B6898
:103E30007A681268B2F8442092B222F4804292B2B8
:103E4000A3F844207B681B68184603F07BFA0346FE
:103E500003F40053002B0BD07B681B687A68126850
:103E6000B2F8442092B222F4005292B2A3F8442055
:103E70007B681B68184603F065FA034603F4805319
:103E8000002B23D07B681B687A681268B2F8402048
:103E900092B222F0040292B2A3F840204FF43D43C4
:103EA000FB607B681B68FA6892B2A3F840207868D0
:103EB00000F0B6FF7B681B687A681268B2F844208D
:103EC00092B222F4805292B2A3F844207B681B681D
:103ED000184603F037FA034603F40063002B30D092
:103EE0007B681B687A681268B2F8442092B222F4A8
:103EF000006292B2A3F844207B681B687A6812685B
:103F0000B2F8402092B242F0080292B2A3F84020E8
:103F10007B681B687A681268B2F8402092B242F05F
:103F2000040292B2A3F840207B681B68184603F095
:103F300009FA034603F48053002B02D1786800F09D
:103F400055FF7B681B68184603F0FCF9034603F431
:103F50000073002B0ED07B681B687A681268B2F879
:103F6000442092B222F4007292B2A3F844207868FE
:103F700000F00CFF7B681B68184603F0E3F903466A
:103F800003F48073002B0BD07B681B687A6812687F
:103F9000B2F8442092B222F4807292B2A3F8442084
:103FA00000BF1037BD4680BD80B483B000AF7860DD
:103FB0000B46FB7000BF0C37BD4680BC704700BF8E
:103FC00080B483B000AF78600B46FB7000BF0C3745
:103FD000BD4680BC704700BF80B483B000AF78603E
:103FE00000BF0C37BD4680BC704700BF80B483B0B3
:103FF00000AF786000BF0C37BD4680BC704700BF83
:1040000080B483B000AF786000BF0C37BD4680BC81
:10401000704700BF80B483B000AF786000BF0C373A
:10402000BD4680BC704700BF80B483B000AF7860ED
:1040300000BF0C37BD4680BC704700BF80B483B062
:1040400000AF78600B46FB7000BF0C37BD4680BCEC
:10405000704700BF80B483B000AF78600B46FB7040
:1040600000BF0C37BD4680BC704700BF80B483B032
:1040700000AF786000BF0C37BD4680BC704700BF02
:1040800080B483B000AF786000BF0C37BD4680BC01
:10409000704700BF80B582B000AF78607B6893F84E
:1040A000E833012B01D1022311E07B68012283F860
:1040B000E8230121786801F081F87B681B681846C5
:1040C00003F02CF97B68002283F8E82300231846CC
:1040D0000837BD4680BD00BF80B582B000AF7860B4
:1040E0007B6893F8E833012B01D1022311E07B6850
:1040F000012283F8E8230021786801F05FF87B68EB
:104100001B68184603F014F97B68002283F8E82343
:10411000002318460837BD4680BD00BF80B582B079
:1041200000AF78600B46FB707B6893F8E833012B97
:1041300001D1022313E07B68012283F8E8237B6826
:10414000FA7883F824207B681B68FA7811461846B1
:1041500003F0D0F87B68002283F8E8230023184698
:104160000837BD4680BD00BF80B584B000AF786021
:10417000084611461A460346FB700B463B80134621
:10418000BB700023FB720023FB6097F90330002B08
:1041900008DAFB7803F07F035B0128337A68134465
:1041A000FB6008E0FB7803F07F035B0103F502731B
:1041B0007A681344FB60FB7803F07F03DAB2FB6894
:1041C0001A7097F90330DBB2DB09DBB21A46FB68E1
:1041D0005A703A88FB681A61FB68BA78DA707B68B3
:1041E00093F8E833012B01D102230EE07B68012212
:1041F00083F8E8237B681B68F968184602F07CF8AE
:104200007B68002283F8E823FB7A18461037BD4606
:1042100080BD00BF80B584B000AF78600B46FB70F6
:104220000023FB6097F90330002B08DAFB7803F0DA
:104230007F035B0128337A681344FB6008E0FB7856
:1042400003F07F035B0103F502737A681344FB609C
:10425000FB7803F07F03DAB2FB681A7097F903303A
:10426000DBB2DB09DBB21A46FB685A707B6893F855
:10427000E833012B01D102230EE07B68012283F891
:10428000E8237B681B68F968184602F0FDFA7B6832
:10429000002283F8E823002318461037BD4680BD6E
:1042A00080B586B000AFF8607A603B600B46FB7269
:1042B00000237B61FB7A03F07F035B0103F502734C
:1042C000FA6813447B617B697A685A617B693A6852
:1042D0009A617B690022DA617B6900225A70FB7A5D
:1042E00003F07F03DAB27B691A70FB6893F8E83356
:1042F000012B01D102231AE0FB68012283F8E82395
:10430000FB7A03F07F03002B06D1FB681B687969F9
:10431000184602F041FC05E0FB681B687969184605
:1043200002F03AFCFB68002283F8E82300231846D9
:104330001837BD4680BD00BF80B483B000AF786041
:104340000B46FB70FB7803F07F037A6811335B0147
:10435000134404331B689BB218460C37BD4680BC1F
:10436000704700BF80B586B000AFF8607A603B60F0
:104370000B46FB7200237B61FB7A03F07F035B013A
:104380002833FA6813447B617B697A685A617B69D8
:104390003A689A617B690022DA617B6901225A706E
:1043A000FB7A03F07F03DAB27B691A70FB6893F83B
:1043B000E833012B01D102231AE0FB68012283F8C4
:1043C000E823FB7A03F07F03002B06D1FB681B6810
:1043D0007969184602F0E0FB05E0FB681B68796923
:1043E000184602F0D9FBFB68002283F8E82300237B
:1043F00018461837BD4680BD80B584B000AF7860E0
:104400000B46FB700023FB6097F90330002B08DAA2
:10441000FB7803F07F035B0128337A681344FB6069
:1044200006E0FB785B0103F502737A681344FB60D6
:10443000FB6801229A70FB7803F07F03DAB2FB6815
:104440001A7097F90330DBB2DB09DBB21A46FB685E
:104450005A707B6893F8E833012B01D102231CE0EA
:104460007B68012283F8E8237B681B68F96818469B
:1044700002F040FEFB7803F07F03002B08D17B683D
:104480001A687B6803F57B731946104602F0A2FF99
:104490007B68002283F8E823002318461037BD46C6
:1044A00080BD00BF80B584B000AF78600B46FB7064
:1044B0000023FB6097F90330002B08DAFB7803F048
:1044C0007F035B0128337A681344FB6006E0FB78C6
:1044D0005B0103F502737A681344FB60FB680022FA
:1044E0009A70FB7803F07F03DAB2FB681A7097F9D1
:1044F0000330DBB2DB09DBB21A46FB685A707B681B
:1045000093F8E833012B01D102230EE07B680122EE
:1045100083F8E8237B681B68F968184602F04AFEB6
:104520007B68002283F8E823002318461037BD4635
:1045300080BD00BF80B582B000AF78600B46FB70D5
:104540007B6893F8E833012B01D102231BE07B68E1
:10455000012283F8E82397F90330002B09DA7B68FE
:104560001A68FB7803F07F031946104601F0AEFE8F
:1045700004E07B681B68184601F0B4FE7B680022EB
:1045800083F8E823002318460837BD4680BD00BFE6
:1045900080B582B000AF78607B681B68184602F077
:1045A00025FF034618460837BD4680BD80B582B05A
:1045B00000AF78607B681B68184602F02BFF03464B
:1045C00018460837BD4680BD80B483B000AF786020
:1045D0007B6893F8E933DBB218460C37BD4680BCE4
:1045E000704700BF90B589B000AF78600023BB6111
:1045F0000023FB830023FB750023FB810023BB8189
:1046000013E3FB899BB2DBB203F00F03FB75FB7D69
:10461000002B40F02E81FB899BB203F01003002B8E
:104620004ED17B681A687B681B681B889BB223F499
:10463000E14323F070039BB213807B682833BB6196
:104640007B681B68B3F850309BB21A46BB691B7875
:10465000DB00134402335B001A467B681B6813447B
:1046600003F580631B689BB2C3F30902BB69DA617F
:10467000BB695A69BB69DB691A44BB695A6100218D
:10468000786800F06BFB7B6893F82430DBB2002B7A
:1046900000F0CB82BB699B69002B40F0C6827B682F
:1046A0001B687A6892F82420D2B262F07F02D2B2FC
:1046B00092B2A3F84C207B68002283F82420B4E255
:1046C0007B6803F50273BB617B681B681B889BB228
:1046D000BB81BB899BB203F40063002B32D07B68A3
:1046E0001B68B3F850309BB21A46BB691B78DB00DD
:1046F000134406335B001A467B681B68134403F5BA
:1047000080631B689BB2C3F30902BB69DA617B68F3
:1047100018687B6803F57B71BB699A88BB69DB69A4
:104720009BB202F0D1FE7B681A687B681B681B880D
:1047300099B240F68F730B409BB21380786800F0FB
:10474000E3FA72E2BB899BB21BB2002B80F26D824E
:104750007B681A687B681B681B8899B240F68F7368
:104760000B409BB213807B681B68B3F850309BB240
:104770001A46BB691B78DB00134406335B001A46FC
:104780007B681B68134403F580631B689BB2C3F30B
:104790000902BB69DA61BB69DB69002B11D07B6858
:1047A0001868BB695969BB699A88BB69DB699BB2A8
:1047B00002F08AFEBB695A69BB69DB691A44BB69AE
:1047C0005A610021786800F0B1FA7B681B68B3F881
:1047D00050309BB206335B001A467B681B6813445B
:1047E00003F580633B61BB691B693E2B18D9BB692C
:1047F0001B695B09BB83BB691B6903F01F03002BAB
:1048000002D1BB8B013BBB83BB8B9B029BB26FEA8C
:1048100043436FEA53439BB21A463B691A6012E066
:10482000BB691B695B08BB83BB691B6903F00103A0
:10483000002B02D0BB8B0133BB83BB8B9B029BB293
:104840001A463B691A607B681B681B889BB223F47D
:10485000804323F070039CB284F480539CB284F4B0
:1048600000539CB27B681A689A4B23439BB2138017
:10487000DBE17B681B681A46FB7D9B0013441B88A9
:104880009BB2BB81BB899BB21BB2002B80F2D38051
:104890007B681B681A46FB7D9B001A447B681B687B
:1048A0001946FB7D9B000B441B8899B240F68F7321
:1048B0000B409BB21380FB7D5B0103F502737A68AA
:1048C0001344BB61BB699B7A002B23D17B681B68B7
:1048D000B3F850309BB21A46BB691B78DB00134417
:1048E00006335B001A467B681B68134403F580633C
:1048F0001B689BB2C3F30903FB83FB8B002B75D0B2
:104900007B681868BB695969BB699A88FB8B02F0A0
:10491000DBFD6BE07B681B681A46BB691B789B005C
:1049200013441B889BB203F48043002B23D07B6885
:104930001B68B3F850309BB21A46BB691B78DB008A
:10494000134402335B001A467B681B68134403F56B
:1049500080631B689BB2C3F30903FB83FB8B002BB3
:104960002CD07B681868BB695969BB69DA88FB8BF6
:1049700002F0AAFD22E07B681B68B3F850309BB2BE
:104980001A46BB691B78DB00134406335B001A46EA
:104990007B681B68134403F580631B689BB2C3F3F9
:1049A0000903FB83FB8B002B08D07B681868BB696D
:1049B0005969BB691A89FB8B02F086FD7B681B680D
:1049C0001A46BB691B789B001A447B681B68194612
:1049D000BB691B789B000B441B8899B240F60F7390
:1049E0000B4099B23C4B0B439BB21380BB69DA6915
:1049F000FB8B1A44BB69DA61BB695A69FB8B1A44A9
:104A0000BB695A61BB699B69002B04D0FA8BBB69F7
:104A10001B699A4206D2BB691B781946786800F078
:104A200085F908E0BB691978BB695A69BB699B695C
:104A30007868FFF735FCBB899BB203F08003002B3D
:104A400000F0F380FB7D5B0128337A681344BB617F
:104A50007B681B681A46FB7D9B001A447B681B68B9
:104A60001946FB7D9B000B441B889BB223F4E1435A
:104A700023F070039BB21380BB699B7A002B2DD16E
:104A80007B681B68B3F850309BB21A46BB691B7831
:104A9000DB00134402335B001A467B681B68134437
:104AA00003F580631B689BB2C3F30902BB69DA613B
:104AB000BB69DB69002B00F085807B681868BB69E7
:104AC0005969BB699A88BB69DB699BB202F0B6FC85
:104AD00078E000BF8080FFFFC080FFFF7B681B681D
:104AE0001A46BB691B789B0013441B889BB203F0DA
:104AF0004003002B27D07B681B68B3F850309BB273
:104B00001A46BB691B78DB00134402335B001A466C
:104B10007B681B68134403F580631B689BB2C3F377
:104B20000902BB69DA61BB69DB69002B32D07B68A3
:104B30001868BB695969BB69DA88BB69DB699BB2D4
:104B400002F07CFC26E07B681B68B3F850309BB217
:104B50001A46BB691B78DB00134406335B001A4618
:104B60007B681B68134403F580631B689BB2C3F327
:104B70000902BB69DA61BB69DB69002B0AD07B687B
:104B80001868BB695969BB691A89BB69DB699BB243
:104B900002F054FC7B681B681A46BB691B789B00BB
:104BA0001A447B681B681946BB691B789B000B4441
:104BB0001B8899B240F60F730B4099B2234B0B43FD
:104BC0009BB213807B681B68B3F850309BB21A46C7
:104BD000BB691B78DB00134402335B001A467B6819
:104BE0001B68134403F580631B689BB2C3F309027F
:104BF000BB69DA61BB695A69BB69DB691A44BB6985
:104C00005A61BB699B69002B06D1BB691B781946A9
:104C1000786800F0A3F808E0BB691978BB695A69A5
:104C2000BB699B697868FFF79DFB7B681B68B3F8DD
:104C300044309BB21A46FA811BB2002BFFF6E1AC5E
:104C4000002318462437BD4690BD00BF80C0FFFF3B
:104C500080B500AFFDF7AEF9FBF708FD00BF80BDE2
:104C600080B500AF0248FFF7A7F800BF80BD00BFC6
:104C7000CC07002080B500AF024804F077FC00BFED
:104C800080BD00BF9005002080B584B000AF786083
:104C90007B681B680D4A934213D10D4A0C4BDB69AC
:104CA00043F40003D3610A4BDB6903F40003FB60A8
:104CB000FB68002200211420FBF718FC1420FBF7EE
:104CC00031FC00BF1037BD4680BD00BF005C004016
:104CD0000010024080B582B000AF78607B681B682E
:104CE000074A934208D1074A064BDB6923F40003C5
:104CF000D3611420FBF724FC00BF0837BD4680BDFC
:104D0000005C00400010024080B582B000AF7860C7
:104D10007B68D3F81C247B6803F57B731946104627
:104D200001F02AF800BF0837BD4680BD80B582B0CB
:104D300000AF78600B46FB707B68D3F81C04FB78EF
:104D40007A685B01134403F507731A68FB78194608
:104D500001F05CF800BF0837BD4680BD80B582B069
:104D600000AF78600B46FB707B68D3F81C04FB78BF
:104D70007A685B0113443C331A68FB78194601F0EA
:104D8000A1F800BF0837BD4680BD00BF80B582B026
:104D900000AF78607B68D3F81C34184601F086F9C0
:104DA00000BF0837BD4680BD80B584B000AF7860D5
:104DB0000123FB737B689B68022B02D10123FB73E9
:104DC00002E00123FB7300BF7B68D3F81C34FA7B3D
:104DD0001146184601F036F97B68D3F81C341846A2
:104DE00001F000F900BF1037BD4680BD80B582B02C
:104DF00000AF78607B68D3F81C34184601F032F9B4
:104E00007B689B69002B05D0044A044B1B6943F067
:104E10000603136100BF0837BD4680BD00ED00E00A
:104E200080B582B000AF78607B68D3F81C34184638
:104E300001F02CF900BF0837BD4680BD80B582B0B7
:104E400000AF78600B46FB707B68D3F81C34FA78AF
:104E50001146184601F050F900BF0837BD4680BD25
:104E600080B582B000AF78600B46FB707B68D3F8EA
:104E70001C34FA781146184601F032F900BF0837A1
:104E8000BD4680BD80B582B000AF78607B68D3F846
:104E90001C34184601F03CF900BF0837BD4680BD00
:104EA00080B582B000AF78607B68D3F81C341846B8
:104EB00001F038F900BF0837BD4680BD80B582B02B
:104EC00000AF78601E4A7B68C2F81C347B681C4ABD
:104ED000C3F820221A4B1B4A1A60194B08225A6049
:104EE000174B02229A60164B0322DA60144B002201
:104EF0009A61134B0022DA61114B00221A621048AA
:104F0000FEF702FE7B68D3F820021823002200215E
:104F100001F020F97B68D3F8200258230022802179
:104F200001F018F97B68D3F820024FF48073002257
:104F3000812101F00FF9002318460837BD4680BDD6
:104F4000CC070020005C004080B582B000AF7860E4
:104F50007B68D3F820321846FEF7B0FE00231846CF
:104F60000837BD4680BD00BF80B582B000AF786015
:104F70007B68D3F820321846FEF7D0FE002318468F
:104F80000837BD4680BD00BF80B582B000AF7860F5
:104F90007B68D3F820321846FEF7E6FE0023184659
:104FA0000837BD4680BD00BF80B582B000AF7860D5
:104FB000084611461A460346FB700B46BB70134663
:104FC0003B807B68D3F82002BB783A88F978FFF7FA
:104FD000CBF8002318460837BD4680BD80B582B0A7
:104FE00000AF78600B46FB707B68D3F82032FA780C
:104FF00011461846FFF70EF9002318460837BD463C
:1050000080BD00BF80B582B000AF78600B46FB70FA
:105010007B68D3F82032FA7811461846FFF78AFAEF
:10502000002318460837BD4680BD00BF80B582B05A
:1050300000AF78600B46FB707B68D3F82032FA78BB
:1050400011461846FFF7D8F9002318460837BD4621
:1050500080BD00BF80B582B000AF78600B46FB70AA
:105060007B68D3F82032FA7811461846FFF71AFA0F
:10507000002318460837BD4680BD00BF80B485B008
:1050800000AF78600B46FB707B68D3F82032FB6082
:1050900097F90330002B08DAFB7803F07F03FA68F6
:1050A0005B0113442A331B7808E0FB7803F07F038D
:1050B000FA685B01134403F20A231B78184614377D
:1050C000BD4680BC704700BF80B582B000AF78603D
:1050D0000B46FB707B68D3F82032FA7811461846ED
:1050E000FFF71CF8002318460837BD4680BD00BFF7
:1050F00080B584B000AFF8607A601A460B46FB7248
:1051000013463B81FB68D3F820023B89F97A7A6821
:10511000FFF728F9002318461037BD4680BD00BFB1
:1051200080B584B000AFF8607A601A460B46FB7217
:1051300013463B81FB68D3F820023B89F97A7A68F1
:10514000FFF7AEF8002318461037BD4680BD00BFFC
:1051500080B582B000AF78600B46FB707B68D3F8F7
:105160002032FA7811461846FFF7E6F8034618464B
:105170000837BD4680BD00BF80B582B000AF786003
:105180007868FCF72FFF00BF0837BD4680BD00BF21
:1051900080B483B000AF7860024B18460C37BD4630
:1051A00080BC70477805002080B483B000AF786081
:1051B00000BF0C37BD4680BC704700BF80B483B0D1
:1051C00000AF78600B46FB7000BF0C37BD4680BC5B
:1051D000704700BF80B584B000AFF860B960134677
:1051E000FB80FB680222C3F8F421FA88FB689A610D
:1051F000FA88FB68DA61FB88BA680021F868FFF773
:1052000077FF002318461037BD4680BD80B584B0B7
:1052100000AFF860B9601346FB80FB88BA680021D4
:10522000F868FFF765FF002318461037BD4680BDBC
:1052300080B584B000AFF860B9601346FB80FB68AE
:105240000322C3F8F421FA88FB68C3F80821FA881E
:10525000FB68C3F80C21FB88BA680021F868FFF7E7
:105260005FFF002318461037BD4680BD80B584B06F
:1052700000AFF860B9601346FB80FB88BA68002174
:10528000F868FFF74DFF002318461037BD4680BD74
:1052900080B582B000AF78607B680422C3F8F42147
:1052A0000023002200217868FFF722FF0023184620
:1052B0000837BD4680BD00BF80B582B000AF7860C2
:1052C0007B680522C3F8F4210023002200217868BE
:1052D000FFF726FF002318460837BD4680BD00BFF4
:1052E00080B582B000AF78600B46FB70FB78194642
:1052F0007868FFF72DFF03469BB218460837BD4676
:1053000080BD00BF80B500AF00220649064800F00E
:105310006FFC0649044800F0B5FC034800F0CCFCE3
:1053200000BF80BDB8000020EC0B00200000002072
:1053300080B584B000AF786039600023FB733B68B0
:105340005B78092B39D801A252F823F09D5300084D
:10535000B1530008BB530008A7530008BB53000813
:105360007F53000875530008BB530008935300088F
:10537000895300083968786800F036F922E0396806
:10538000786800F025FA1DE03968786800F05EFA68
:1053900018E03968786800F0E1FA13E03968786855
:1053A00000F00EFB0EE03968786800F033FB09E08E
:1053B0003968786800F04AFB04E03968786800F0E2
:1053C000A9FB00BFFB7B18461037BD4680BD00BF60
:1053D00080B584B000AF786039600023FB737B68D0
:1053E00093F8FC31032B1BD13B689B88DBB2012B6C
:1053F00011D87B68D3F814329B683968786898476D
:105400003B68DB88002B10D1FB7B002B0DD178682B
:10541000FFF73EFF09E03968786800F07BFB04E0A5
:105420003968786800F076FB00E000BF002318467A
:105430001037BD4680BD00BF80B584B000AF786036
:1054400039600023FB733B689B88BB733B681B7808
:1054500003F06003202B08D17B68D3F814329B68DB
:105460003968786898470023BAE03B685B78012B7D
:1054700039D0032B02D0002B6BD0B0E07B6893F8BF
:10548000FC31022B02D0032B0CD025E0BB7B002B80
:1054900027D0BB7B802B24D0BB7B19467868FFF7D5
:1054A000C5FD1EE03B685B88002B0AD1BB7B002B4F
:1054B00007D0BB7B802B04D0BB7B19467868FFF7F5
:1054C000B5FD7B68D3F814329B68396878689847D3
:1054D0007868FFF7DDFE05E03968786800F01AFBB0
:1054E00000E000BF7BE07B6893F8FC31022B02D028
:1054F000032B0CD024E0BB7B002B26D0BB7B802B66
:1055000023D0BB7B19467868FFF790FD1DE03B6810
:105510005B88002B1BD1BB7B03F07F03002B0BD0E0
:10552000BB7B19467868FFF795FD7B68D3F814328A
:105530009B683968786898477868FFF7A9FE06E0A5
:105540003968786800F0E6FA02E000BF47E000BF83
:1055500045E07B6893F8FC31022B02D0032B0BD083
:1055600036E0BB7B03F07F03002B36D0BB7B1946B4
:105570007868FFF75BFD30E097F90E30002B08DA12
:10558000BB7B03F07F0301331B017A6813440433B0
:1055900007E0BB7B03F07F0310331B017A681344E1
:1055A0000433BB60BB7B19467868FFF767FD034691
:1055B000002B03D0BB6801221A6002E0BB68002206
:1055C0001A60BB68022219467868FFF703FE05E0FF
:1055D0003968786800F09EFA00E000BF00BFFB7BEE
:1055E00018461037BD4680BD80B584B000AF7860E6
:1055F00039603B685B881B0A9BB2013B062B00F2BB
:10560000C98001A252F823F0255600083D56000833
:105610007D56000895570008955700084157000827
:10562000675700087B68D3F810321B687A68127CD1
:1056300007F10A0110469847F860B0E07B681B7CD0
:10564000002B0DD17B68D3F814329B6A07F10A0254
:1056500010469847F860FB68013302221A709EE0FA
:105660007B68D3F81432DB6A07F10A0210469847C8
:10567000F860FB68013302221A7090E03B685B8897
:10568000DBB2052B56D801A252F823F0A55600082C
:10569000BD560008D5560008ED560008055700080D
:1056A0001D5700087B68D3F810325B687A68127C5B
:1056B00007F10A0110469847F86040E07B68D3F88C
:1056C00010329B687A68127C07F10A0110469847ED
:1056D000F86034E07B68D3F81032DB687A68127CBB
:1056E00007F10A0110469847F86028E07B68D3F874
:1056F00010321B697A68127C07F10A01104698473C
:10570000F8601CE07B68D3F810325B697A68127C21
:1057100007F10A0110469847F86010E07B68D3F85B
:1057200010329B697A68127C07F10A01104698478B
:10573000F86004E03968786800F0ECF944E02EE0A5
:105740007B681B7C002B09D17B68D3F814325B6B20
:1057500007F10A0210469847F86020E03968786837
:1057600000F0D8F930E07B681B7C002B0DD17B6802
:10577000D3F814321B6B07F10A0210469847F86001
:10578000FB68013307221A7009E03968786800F075
:10579000C1F919E03968786800F0BCF914E07B8938
:1057A000002B11D03B68DB88002B0DD03B68DA88DA
:1057B0007B89934228BF13469BB27B817B891A4623
:1057C000F9687868FFF706FD1037BD4680BD00BF59
:1057D00080B584B000AF786039603B689B88002B4F
:1057E0002CD13B68DB88002B28D13B685B88DBB27F
:1057F00003F07F03FB737B6893F8FC31032B04D128
:105800003968786800F086F91CE07B68FA7B83F8D9
:10581000FE21FB7B19467868FFF756FC7868FFF796
:1058200037FDFB7B002B04D07B68022283F8FC2130
:1058300008E07B68012283F8FC2103E0396878687E
:1058400000F068F900BF1037BD4680BD80B582B05A
:1058500000AF786039603B685B88DAB23E4B1A7003
:105860003D4B1B78012B04D93968786800F052F958
:105870006FE07B6893F8FC31022B02D0032B23D01E
:1058800062E0354B1B78002B1AD0334B1B781A463D
:105890007B685A607B68032283F8FC212E4B1B78BF
:1058A0001946786800F034FA0346022B04D13968AF
:1058B000786800F02FF94CE07868FFF7E9FC48E0E1
:1058C0007868FFF7E5FC44E0234B1B78002B12D1EE
:1058D0007B68022283F8FC211F4B1B781A467B68E9
:1058E0005A601D4B1B781946786800F031FA7868C9
:1058F000FFF7CEFC2DE0184B1B781A467B685B68DF
:105900009A421DD07B685B68DBB21946786800F06C
:105910001FFA114B1B781A467B685A600E4B1B7896
:105920001946786800F0F4F90346022B04D139686F
:10593000786800F0EFF80CE07868FFF7A9FC08E061
:105940007868FFF7A5FC04E03968786800F0E2F8B1
:1059500000BF0837BD4680BD8C05002080B582B0F1
:1059600000AF786039603B68DB88012B04D0396870
:10597000786800F0CFF81FE07B6893F8FC31022BC9
:1059800002D0032B0BD012E07B6800229A607B6868
:105990000833012219467868FFF71CFC0CE07B688D
:1059A0000433012219467868FFF714FC04E03968D3
:1059B000786800F0AFF800BF00BF0837BD4680BD73
:1059C00080B582B000AF786039607B6893F8FC31B5
:1059D000023B012B15D87B680122DA607B68D3F883
:1059E0000432002B05D07B68DB6843F002027B6841
:1059F000DA607B680C33022219467868FFF7EAFB0D
:105A000004E03968786800F085F800BF00BF083707
:105A1000BD4680BD80B582B000AF786039603B681C
:105A20005B88012B0DD17B680122C3F804227B68BF
:105A3000D3F814329B683968786898477868FFF71C
:105A400027FC00BF0837BD4680BD00BF80B582B0CF
:105A500000AF786039607B6893F8FC31023B012B22
:105A600012D83B685B88012B13D17B680022C3F8F6
:105A700004227B68D3F814329B68396878689847A9
:105A80007868FFF705FC04E03968786800F042F8B0
:105A900000E000BF00BF0837BD4680BD80B483B0C2
:105AA00000AF786039603B681A787B681A703B6891
:105AB0005A787B685A703B6802331B789AB23B680D
:105AC00003331B789BB21B029BB213449AB27B68D0
:105AD0005A803B6804331B789AB23B6805331B78C5
